{
  "contractName": "CryptoConstellationOwnership",
  "abi": [
    {
      "constant": true,
      "inputs": [],
      "name": "cfoAddress",
      "outputs": [
        {
          "name": "",
          "type": "address"
        }
      ],
      "payable": false,
      "stateMutability": "view",
      "type": "function"
    },
    {
      "constant": true,
      "inputs": [],
      "name": "name",
      "outputs": [
        {
          "name": "",
          "type": "string"
        }
      ],
      "payable": false,
      "stateMutability": "view",
      "type": "function"
    },
    {
      "constant": true,
      "inputs": [],
      "name": "ceoAddress",
      "outputs": [
        {
          "name": "",
          "type": "address"
        }
      ],
      "payable": false,
      "stateMutability": "view",
      "type": "function"
    },
    {
      "constant": true,
      "inputs": [],
      "name": "ctoAddress",
      "outputs": [
        {
          "name": "",
          "type": "address"
        }
      ],
      "payable": false,
      "stateMutability": "view",
      "type": "function"
    },
    {
      "constant": false,
      "inputs": [
        {
          "name": "_name",
          "type": "string"
        },
        {
          "name": "_description",
          "type": "string"
        },
        {
          "name": "_ipfsHash",
          "type": "string"
        },
        {
          "name": "_price",
          "type": "uint256"
        },
        {
          "name": "_owner",
          "type": "address"
        }
      ],
      "name": "createConstellation",
      "outputs": [
        {
          "name": "",
          "type": "uint256"
        }
      ],
      "payable": false,
      "stateMutability": "nonpayable",
      "type": "function"
    },
    {
      "constant": false,
      "inputs": [
        {
          "name": "_newCEO",
          "type": "address"
        }
      ],
      "name": "setCEO",
      "outputs": [],
      "payable": false,
      "stateMutability": "nonpayable",
      "type": "function"
    },
    {
      "constant": false,
      "inputs": [
        {
          "name": "_newCOO",
          "type": "address"
        }
      ],
      "name": "setCOO",
      "outputs": [],
      "payable": false,
      "stateMutability": "nonpayable",
      "type": "function"
    },
    {
      "constant": false,
      "inputs": [],
      "name": "unpause",
      "outputs": [],
      "payable": false,
      "stateMutability": "nonpayable",
      "type": "function"
    },
    {
      "constant": false,
      "inputs": [
        {
          "name": "_newCFO",
          "type": "address"
        }
      ],
      "name": "setCFO",
      "outputs": [],
      "payable": false,
      "stateMutability": "nonpayable",
      "type": "function"
    },
    {
      "constant": true,
      "inputs": [],
      "name": "paused",
      "outputs": [
        {
          "name": "",
          "type": "bool"
        }
      ],
      "payable": false,
      "stateMutability": "view",
      "type": "function"
    },
    {
      "constant": true,
      "inputs": [
        {
          "name": "_price",
          "type": "uint256"
        }
      ],
      "name": "calculateDevCut",
      "outputs": [
        {
          "name": "_devCut",
          "type": "uint256"
        }
      ],
      "payable": false,
      "stateMutability": "view",
      "type": "function"
    },
    {
      "constant": true,
      "inputs": [
        {
          "name": "",
          "type": "address"
        }
      ],
      "name": "userNickName",
      "outputs": [
        {
          "name": "",
          "type": "string"
        }
      ],
      "payable": false,
      "stateMutability": "view",
      "type": "function"
    },
    {
      "constant": false,
      "inputs": [],
      "name": "pause",
      "outputs": [],
      "payable": false,
      "stateMutability": "nonpayable",
      "type": "function"
    },
    {
      "constant": true,
      "inputs": [],
      "name": "symbol",
      "outputs": [
        {
          "name": "",
          "type": "string"
        }
      ],
      "payable": false,
      "stateMutability": "view",
      "type": "function"
    },
    {
      "constant": true,
      "inputs": [],
      "name": "cooAddress",
      "outputs": [
        {
          "name": "",
          "type": "address"
        }
      ],
      "payable": false,
      "stateMutability": "view",
      "type": "function"
    },
    {
      "constant": true,
      "inputs": [],
      "name": "erc721Metadata",
      "outputs": [
        {
          "name": "",
          "type": "address"
        }
      ],
      "payable": false,
      "stateMutability": "view",
      "type": "function"
    },
    {
      "constant": true,
      "inputs": [
        {
          "name": "_price",
          "type": "uint256"
        }
      ],
      "name": "calculateNextPrice",
      "outputs": [
        {
          "name": "_nextPrice",
          "type": "uint256"
        }
      ],
      "payable": false,
      "stateMutability": "view",
      "type": "function"
    },
    {
      "constant": true,
      "inputs": [
        {
          "name": "",
          "type": "uint256"
        }
      ],
      "name": "constellationCurrentOwner",
      "outputs": [
        {
          "name": "",
          "type": "address"
        }
      ],
      "payable": false,
      "stateMutability": "view",
      "type": "function"
    },
    {
      "constant": false,
      "inputs": [
        {
          "name": "_user",
          "type": "address"
        },
        {
          "name": "_nickName",
          "type": "string"
        }
      ],
      "name": "setNickName",
      "outputs": [
        {
          "name": "",
          "type": "bool"
        }
      ],
      "payable": false,
      "stateMutability": "nonpayable",
      "type": "function"
    },
    {
      "constant": false,
      "inputs": [
        {
          "name": "_newCTO",
          "type": "address"
        }
      ],
      "name": "setCTO",
      "outputs": [],
      "payable": false,
      "stateMutability": "nonpayable",
      "type": "function"
    },
    {
      "anonymous": false,
      "inputs": [
        {
          "indexed": false,
          "name": "from",
          "type": "address"
        },
        {
          "indexed": false,
          "name": "to",
          "type": "address"
        },
        {
          "indexed": false,
          "name": "tokenId",
          "type": "uint256"
        }
      ],
      "name": "Transfer",
      "type": "event"
    },
    {
      "anonymous": false,
      "inputs": [
        {
          "indexed": false,
          "name": "owner",
          "type": "address"
        },
        {
          "indexed": false,
          "name": "approved",
          "type": "address"
        },
        {
          "indexed": false,
          "name": "tokenId",
          "type": "uint256"
        }
      ],
      "name": "Approval",
      "type": "event"
    },
    {
      "anonymous": false,
      "inputs": [
        {
          "indexed": true,
          "name": "_owner",
          "type": "address"
        },
        {
          "indexed": true,
          "name": "_tokenId",
          "type": "uint256"
        }
      ],
      "name": "ConstellationCreation",
      "type": "event"
    },
    {
      "anonymous": false,
      "inputs": [
        {
          "indexed": true,
          "name": "_tokenId",
          "type": "uint256"
        },
        {
          "indexed": true,
          "name": "_owner",
          "type": "address"
        },
        {
          "indexed": false,
          "name": "_price",
          "type": "uint256"
        }
      ],
      "name": "Bought",
      "type": "event"
    },
    {
      "anonymous": false,
      "inputs": [
        {
          "indexed": true,
          "name": "_tokenId",
          "type": "uint256"
        },
        {
          "indexed": true,
          "name": "_owner",
          "type": "address"
        },
        {
          "indexed": false,
          "name": "_price",
          "type": "uint256"
        }
      ],
      "name": "Sold",
      "type": "event"
    },
    {
      "constant": true,
      "inputs": [
        {
          "name": "_interfaceID",
          "type": "bytes4"
        }
      ],
      "name": "supportsInterface",
      "outputs": [
        {
          "name": "",
          "type": "bool"
        }
      ],
      "payable": false,
      "stateMutability": "view",
      "type": "function"
    },
    {
      "constant": false,
      "inputs": [
        {
          "name": "_contractAddress",
          "type": "address"
        }
      ],
      "name": "setMetadataAddress",
      "outputs": [],
      "payable": false,
      "stateMutability": "nonpayable",
      "type": "function"
    },
    {
      "constant": true,
      "inputs": [
        {
          "name": "_itemId",
          "type": "uint256"
        }
      ],
      "name": "ownerOf",
      "outputs": [
        {
          "name": "_owner",
          "type": "address"
        }
      ],
      "payable": false,
      "stateMutability": "view",
      "type": "function"
    },
    {
      "constant": true,
      "inputs": [
        {
          "name": "_owner",
          "type": "address"
        }
      ],
      "name": "balanceOf",
      "outputs": [
        {
          "name": "count",
          "type": "uint256"
        }
      ],
      "payable": false,
      "stateMutability": "view",
      "type": "function"
    },
    {
      "constant": false,
      "inputs": [
        {
          "name": "_tokenId",
          "type": "uint256"
        }
      ],
      "name": "buy",
      "outputs": [],
      "payable": true,
      "stateMutability": "payable",
      "type": "function"
    },
    {
      "constant": false,
      "inputs": [
        {
          "name": "_to",
          "type": "address"
        },
        {
          "name": "_tokenId",
          "type": "uint256"
        }
      ],
      "name": "approve",
      "outputs": [],
      "payable": false,
      "stateMutability": "nonpayable",
      "type": "function"
    },
    {
      "constant": false,
      "inputs": [
        {
          "name": "_to",
          "type": "address"
        },
        {
          "name": "_itemId",
          "type": "uint256"
        }
      ],
      "name": "transfer",
      "outputs": [],
      "payable": false,
      "stateMutability": "nonpayable",
      "type": "function"
    },
    {
      "constant": false,
      "inputs": [
        {
          "name": "_from",
          "type": "address"
        },
        {
          "name": "_to",
          "type": "address"
        },
        {
          "name": "_tokenId",
          "type": "uint256"
        }
      ],
      "name": "transferFrom",
      "outputs": [],
      "payable": false,
      "stateMutability": "nonpayable",
      "type": "function"
    },
    {
      "constant": true,
      "inputs": [],
      "name": "totalSupply",
      "outputs": [
        {
          "name": "",
          "type": "uint256"
        }
      ],
      "payable": false,
      "stateMutability": "view",
      "type": "function"
    },
    {
      "constant": true,
      "inputs": [
        {
          "name": "_itemId",
          "type": "uint256"
        }
      ],
      "name": "tokenExists",
      "outputs": [
        {
          "name": "_exists",
          "type": "bool"
        }
      ],
      "payable": false,
      "stateMutability": "view",
      "type": "function"
    },
    {
      "constant": true,
      "inputs": [
        {
          "name": "_itemId",
          "type": "uint256"
        }
      ],
      "name": "startingPriceOf",
      "outputs": [
        {
          "name": "_startingPrice",
          "type": "uint256"
        }
      ],
      "payable": false,
      "stateMutability": "view",
      "type": "function"
    },
    {
      "constant": true,
      "inputs": [
        {
          "name": "_itemId",
          "type": "uint256"
        }
      ],
      "name": "priceOf",
      "outputs": [
        {
          "name": "_price",
          "type": "uint256"
        }
      ],
      "payable": false,
      "stateMutability": "view",
      "type": "function"
    },
    {
      "constant": true,
      "inputs": [
        {
          "name": "_itemId",
          "type": "uint256"
        }
      ],
      "name": "nextPriceOf",
      "outputs": [
        {
          "name": "_nextPrice",
          "type": "uint256"
        }
      ],
      "payable": false,
      "stateMutability": "view",
      "type": "function"
    },
    {
      "constant": true,
      "inputs": [
        {
          "name": "_owner",
          "type": "address"
        }
      ],
      "name": "tokensOfOwner",
      "outputs": [
        {
          "name": "ownerTokens",
          "type": "uint256[]"
        }
      ],
      "payable": false,
      "stateMutability": "view",
      "type": "function"
    },
    {
      "constant": true,
      "inputs": [
        {
          "name": "_tokenId",
          "type": "uint256"
        },
        {
          "name": "_preferredTransport",
          "type": "string"
        }
      ],
      "name": "tokenMetadata",
      "outputs": [
        {
          "name": "infoUrl",
          "type": "string"
        }
      ],
      "payable": false,
      "stateMutability": "view",
      "type": "function"
    },
    {
      "constant": false,
      "inputs": [],
      "name": "withdrawAll",
      "outputs": [],
      "payable": false,
      "stateMutability": "nonpayable",
      "type": "function"
    },
    {
      "constant": false,
      "inputs": [
        {
          "name": "_amount",
          "type": "uint256"
        }
      ],
      "name": "withdrawAmount",
      "outputs": [],
      "payable": false,
      "stateMutability": "nonpayable",
      "type": "function"
    }
  ],
  "bytecode": "0x60806040526003805460a060020a60ff021916905566470de4df8200006005556706f05b59d3b20000600655671bc16d674ec80000600755674563918244f4000060085534801561004f57600080fd5b5061203c8061005f6000396000f3fe6080604052600436106101cb5763ffffffff7c0100000000000000000000000000000000000000000000000000000000600035041662923f9e81146101d057806301ffc9a71461020e5780630519ce79146102575780630560ff44146102885780630562b9f71461038157806306fdde03146103ad578063095ea7b3146103c25780630a0f8168146103fb57806318160ddd146104105780631f51366014610437578063226386591461044c57806323b872dd1461057c57806327d7874c146105bf5780632ba73c15146105f25780633f4ba83a146106255780634e0a33791461063a5780635ba9e48e1461066d5780635c975abb146106975780636352211e146106ac57806365121205146106d657806370a082311461070057806371496ea3146107335780638456cb59146107665780638462151c1461077b578063853828b6146107fe57806395d89b4114610813578063a9059cbb14610828578063af7520b914610861578063b047fb501461088b578063b9186d7d146108a0578063bc4006f5146108ca578063d96a094a146108df578063e08503ec146108fc578063e17b25af14610926578063e464bec514610959578063ebd4aab214610983578063fe1439b414610a10575b600080fd5b3480156101dc57600080fd5b506101fa600480360360208110156101f357600080fd5b5035610a43565b604080519115158252519081900360200190f35b34801561021a57600080fd5b506101fa6004803603602081101561023157600080fd5b50357bffffffffffffffffffffffffffffffffffffffffffffffffffffffff1916610a58565b34801561026357600080fd5b5061026c610ce9565b60408051600160a060020a039092168252519081900360200190f35b34801561029457600080fd5b5061030c600480360360408110156102ab57600080fd5b813591908101906040810160208201356401000000008111156102cd57600080fd5b8201836020820111156102df57600080fd5b8035906020019184600183028401116401000000008311171561030157600080fd5b509092509050610cf8565b6040805160208082528351818301528351919283929083019185019080838360005b8381101561034657818101518382015260200161032e565b50505050905090810190601f1680156103735780820380516001836020036101000a031916815260200191505b509250505060405180910390f35b34801561038d57600080fd5b506103ab600480360360208110156103a457600080fd5b5035610df0565b005b3480156103b957600080fd5b5061030c610e89565b3480156103ce57600080fd5b506103ab600480360360408110156103e557600080fd5b50600160a060020a038135169060200135610ec0565b34801561040757600080fd5b5061026c610efa565b34801561041c57600080fd5b50610425610f09565b60408051918252519081900360200190f35b34801561044357600080fd5b5061026c610f14565b34801561045857600080fd5b50610425600480360360a081101561046f57600080fd5b81019060208101813564010000000081111561048a57600080fd5b82018360208201111561049c57600080fd5b803590602001918460018302840111640100000000831117156104be57600080fd5b9193909290916020810190356401000000008111156104dc57600080fd5b8201836020820111156104ee57600080fd5b8035906020019184600183028401116401000000008311171561051057600080fd5b91939092909160208101903564010000000081111561052e57600080fd5b82018360208201111561054057600080fd5b8035906020019184600183028401116401000000008311171561056257600080fd5b919350915080359060200135600160a060020a0316610f23565b34801561058857600080fd5b506103ab6004803603606081101561059f57600080fd5b50600160a060020a0381358116916020810135909116906040013561104d565b3480156105cb57600080fd5b506103ab600480360360208110156105e257600080fd5b5035600160a060020a03166110cc565b3480156105fe57600080fd5b506103ab6004803603602081101561061557600080fd5b5035600160a060020a031661111a565b34801561063157600080fd5b506103ab611168565b34801561064657600080fd5b506103ab6004803603602081101561065d57600080fd5b5035600160a060020a03166111b7565b34801561067957600080fd5b506104256004803603602081101561069057600080fd5b5035611205565b3480156106a357600080fd5b506101fa611218565b3480156106b857600080fd5b5061026c600480360360208110156106cf57600080fd5b5035611228565b3480156106e257600080fd5b50610425600480360360208110156106f957600080fd5b5035611243565b34801561070c57600080fd5b506104256004803603602081101561072357600080fd5b5035600160a060020a03166112ee565b34801561073f57600080fd5b5061030c6004803603602081101561075657600080fd5b5035600160a060020a0316611309565b34801561077257600080fd5b506103ab6113a4565b34801561078757600080fd5b506107ae6004803603602081101561079e57600080fd5b5035600160a060020a0316611439565b60408051602080825283518183015283519192839290830191858101910280838360005b838110156107ea5781810151838201526020016107d2565b505050509050019250505060405180910390f35b34801561080a57600080fd5b506103ab611503565b34801561081f57600080fd5b5061030c611599565b34801561083457600080fd5b506103ab6004803603604081101561084b57600080fd5b50600160a060020a0381351690602001356115d0565b34801561086d57600080fd5b506104256004803603602081101561088457600080fd5b50356115f8565b34801561089757600080fd5b5061026c61160a565b3480156108ac57600080fd5b50610425600480360360208110156108c357600080fd5b5035611619565b3480156108d657600080fd5b5061026c61162b565b6103ab600480360360208110156108f557600080fd5b503561163a565b34801561090857600080fd5b506104256004803603602081101561091f57600080fd5b503561183c565b34801561093257600080fd5b506103ab6004803603602081101561094957600080fd5b5035600160a060020a03166118d4565b34801561096557600080fd5b5061026c6004803603602081101561097c57600080fd5b503561190d565b34801561098f57600080fd5b506101fa600480360360408110156109a657600080fd5b600160a060020a0382351691908101906040810160208201356401000000008111156109d157600080fd5b8201836020820111156109e357600080fd5b80359060200191846001830284011164010000000083111715610a0557600080fd5b509092509050611928565b348015610a1c57600080fd5b506103ab60048036036020811015610a3357600080fd5b5035600160a060020a031661196a565b600080610a4f83611619565b1190505b919050565b604080517f737570706f727473496e74657266616365286279746573342900000000000000815290519081900360190190206000907bffffffffffffffffffffffffffffffffffffffffffffffffffffffff1983811691161480610ce35750604080517f746f6b656e4d657461646174612875696e743235362c737472696e67290000008152815190819003601d0181207f746f6b656e734f664f776e657228616464726573732900000000000000000000825282519182900360160182207f7472616e7366657246726f6d28616464726573732c616464726573732c75696e83527f7432353629000000000000000000000000000000000000000000000000000000602084015283519283900360250183207f7472616e7366657228616464726573732c75696e743235362900000000000000845284519384900360190184207f617070726f766528616464726573732c75696e74323536290000000000000000855285519485900360180185207f6f776e65724f662875696e743235362900000000000000000000000000000000865286519586900360100186207f62616c616e63654f662861646472657373290000000000000000000000000000875287519687900360120187207f746f74616c537570706c792829000000000000000000000000000000000000008852885197889003600d0188207f73796d626f6c2829000000000000000000000000000000000000000000000000895289519889900360080189207f6e616d65282900000000000000000000000000000000000000000000000000008a529951988990036006019098207bffffffffffffffffffffffffffffffffffffffffffffffffffffffff198c811691909a189098181818181818181891909116145b92915050565b600254600160a060020a031681565b6060610d02611eb8565b600f54604080517fcb4799f2000000000000000000000000000000000000000000000000000000008152600481018881526024820192835260448201879052600093600160a060020a03169263cb4799f2928a928a928a92606401848480828437600083820152604051601f909101601f1916909201965060a09550909350505081840390508186803b158015610d9857600080fd5b505afa158015610dac573d6000803e3d6000fd5b505050506040513d601f19601f8201168201806040525060a0811015610dd157600080fd5b5060808101519092509050610de682826119b8565b9695505050505050565b600354600160a060020a0316331480610e135750600054600160a060020a031633145b80610e285750600254600160a060020a031633145b80610e3d5750600154600160a060020a031633145b1515610e4857600080fd5b60008054604051600160a060020a0390911691829184156108fc0291859190818181858888f19350505050158015610e84573d6000803e3d6000fd5b505050565b60408051808201909152601381527f43727970746f436f6e7374656c6c6174696f6e00000000000000000000000000602082015281565b60035460a060020a900460ff1615610ed757600080fd5b610ee13382611a03565b1515610eec57600080fd5b610ef68183611a23565b5050565b600054600160a060020a031681565b600954600019015b90565b600154600160a060020a031681565b60035460009060a060020a900460ff1615610f3d57600080fd5b600354600160a060020a0316331480610f605750600054600160a060020a031633145b80610f755750600254600160a060020a031633145b80610f8a5750600154600160a060020a031633145b1515610f9557600080fd5b61104089898080601f01602080910402602001604051908101604052809392919081815260200183838082843760009201919091525050604080516020601f8d018190048102820181019092528b815292508b91508a908190840183828082843760009201919091525050604080516020601f8c018190048102820181019092528a815292508a9150899081908401838280828437600092019190915250899250889150611b689050565b9998505050505050505050565b60035460a060020a900460ff161561106457600080fd5b600160a060020a038216151561107957600080fd5b600160a060020a03821630141561108f57600080fd5b3361109982611d41565b600160a060020a0316146110ac57600080fd5b6110b68382611a03565b15156110c157600080fd5b610e84838383611d5c565b600054600160a060020a031633146110e357600080fd5b600160a060020a03811615156110f857600080fd5b60008054600160a060020a031916600160a060020a0392909216919091179055565b600054600160a060020a0316331461113157600080fd5b600160a060020a038116151561114657600080fd5b60038054600160a060020a031916600160a060020a0392909216919091179055565b600054600160a060020a0316331461117f57600080fd5b60035460a060020a900460ff16151561119757600080fd5b6003805474ff000000000000000000000000000000000000000019169055565b600054600160a060020a031633146111ce57600080fd5b600160a060020a03811615156111e357600080fd5b60028054600160a060020a031916600160a060020a0392909216919091179055565b6000610ce361121383611619565b61183c565b60035460a060020a900460ff1681565b6000908152600a6020526040902054600160a060020a031690565b600060055482101561127857611271606461126584600a63ffffffff611e2216565b9063ffffffff611e5116565b9050610a53565b60065482101561129857611271606461126584600963ffffffff611e2216565b6007548210156112b857611271606461126584600863ffffffff611e2216565b6008548210156112d857611271606461126584600763ffffffff611e2216565b611271606461126584600663ffffffff611e2216565b600160a060020a03166000908152600b602052604090205490565b60046020908152600091825260409182902080548351601f60026000196101006001861615020190931692909204918201849004840281018401909452808452909183018282801561139c5780601f106113715761010080835404028352916020019161139c565b820191906000526020600020905b81548152906001019060200180831161137f57829003601f168201915b505050505081565b600354600160a060020a03163314806113c75750600054600160a060020a031633145b806113dc5750600254600160a060020a031633145b806113f15750600154600160a060020a031633145b15156113fc57600080fd5b60035460a060020a900460ff161561141357600080fd5b6003805474ff0000000000000000000000000000000000000000191660a060020a179055565b60606000611446836112ee565b9050801515611465575050604080516000815260208101909152610a53565b606081604051908082528060200260200182016040528015611491578160200160208202803883390190505b509050600061149e610f09565b9050600060015b8281116114f6576000818152600a6020526040902054600160a060020a03888116911614156114ee578084838151811015156114dd57fe5b602090810290910101526001909101905b6001016114a5565b8395505050505050610a53565b600354600160a060020a03163314806115265750600054600160a060020a031633145b8061153b5750600254600160a060020a031633145b806115505750600154600160a060020a031633145b151561155b57600080fd5b60008054604051600160a060020a03909116918291303180156108fc0292909190818181858888f19350505050158015610ef6573d6000803e3d6000fd5b60408051808201909152600381527f43434c0000000000000000000000000000000000000000000000000000000000602082015281565b6115d981611228565b600160a060020a031633146115ed57600080fd5b610ef6338383611d5c565b6000908152600c602052604090205490565b600354600160a060020a031681565b6000908152600d602052604090205490565b600f54600160a060020a031681565b60035460a060020a900460ff161561165157600080fd5b600061165c82611619565b1161166657600080fd5b600061167182611228565b600160a060020a0316141561168557600080fd5b61168e81611619565b34101561169a57600080fd5b336116a482611228565b600160a060020a031614156116b857600080fd5b3315156116c457600080fd5b60006116cf82611228565b90503360006116dd84611619565b905060006116f1348363ffffffff611e6816565b90506116fe848487611d5c565b61170785611205565b600d60008781526020019081526020016000208190555082600160a060020a0316857fd2728f908c7e0feb83c6278798370fcb86b62f236c9dbf1a3f541096c2159040846040518082815260200191505060405180910390a3604080518381529051600160a060020a0386169187917f66f5cd880edf48cdde6c966e5da0784fcc4c5e85572b8b3b62c4357798d447d79181900360200190a360006117ab83611243565b9050600160a060020a0385166108fc6117ca858463ffffffff611e6816565b6040518115909202916000818181858888f193505050501580156117f2573d6000803e3d6000fd5b50600082111561183457604051600160a060020a0385169083156108fc029084906000818181858888f19350505050158015611832573d6000803e3d6000fd5b505b505050505050565b600060055482101561185e57611271605f6112658460c863ffffffff611e2216565b60065482101561187e57611271606061126584608763ffffffff611e2216565b60075482101561189e57611271606161126584607d63ffffffff611e2216565b6008548210156118be57611271606161126584607563ffffffff611e2216565b611271606261126584607363ffffffff611e2216565b600054600160a060020a031633146118eb57600080fd5b600f8054600160a060020a031916600160a060020a0392909216919091179055565b600a60205260009081526040902054600160a060020a031681565b6000600160a060020a038416151561193f57600080fd5b600160a060020a0384166000908152600460205260409020611962908484611ed7565b509392505050565b600054600160a060020a0316331461198157600080fd5b600160a060020a038116151561199657600080fd5b60018054600160a060020a031916600160a060020a0392909216919091179055565b606080826040519080825280601f01601f1916602001820160405280156119e6576020820181803883390190505b50905060208101846119f9828287611e7a565b5090949350505050565b6000908152600a6020526040902054600160a060020a0391821691161490565b33600160a060020a0382161415611a3957600080fd5b611a4282610a43565b1515611a4d57600080fd5b33611a5783611228565b600160a060020a031614611a6a57600080fd5b600160a060020a0381161515611afa576000828152600e6020526040902054600160a060020a031615611af5576000828152600e602090815260408083208054600160a060020a031916905580513381529182019290925280820184905290517f8c5be1e5ebec7d5bd14f71427d1e84f3dd0314c0f7b2291e5b200ac8c7c3b9259181900360600190a15b610ef6565b6000828152600e60209081526040918290208054600160a060020a038516600160a060020a0319909116811790915582513381529182015280820184905290517f8c5be1e5ebec7d5bd14f71427d1e84f3dd0314c0f7b2291e5b200ac8c7c3b9259181900360600190a15050565b60035460009060a060020a900460ff1615611b8257600080fd5b600354600160a060020a0316331480611ba55750600054600160a060020a031633145b80611bba5750600254600160a060020a031633145b80611bcf5750600154600160a060020a031633145b1515611bda57600080fd5b611be2611f55565b5060408051608081018252878152602080820188905291810186905267ffffffffffffffff421660608201526009805460018181018084556000938452845180519596949592949193879360049091027f6e1540171b6c0c960b71a7020d9f60077f6af931a8bbf590da0223dacf75c7af0192611c63928492910190611f88565b506020828101518051611c7c9260018501920190611f88565b5060408201518051611c98916002840191602090910190611f88565b50606091909101516003909101805467ffffffffffffffff191667ffffffffffffffff90921691909117905503905063ffffffff81168114611cd957600080fd5b6000818152600c60209081526040808320889055600d909152808220879055518291600160a060020a038716917fe331ff99631abd6a038660b66ed834044ccdb1443989a2e28b321498e71caa599190a3611d3660008583611d5c565b979650505050505050565b6000908152600e6020526040902054600160a060020a031690565b600160a060020a038083166000818152600b6020908152604080832080546001019055858352600a82528083208054600160a060020a03199081169095179055600e909152902080549091169055831615611dd257600160a060020a0383166000908152600b6020526040902080546000190190555b81600160a060020a031683600160a060020a03167fddf252ad1be2c89b69c2b068fc378daa952ba7f163c4a11628f55a4df523b3ef836040518082815260200191505060405180910390a3505050565b6000821515611e3357506000610ce3565b828202828482811515611e4257fe5b0414611e4a57fe5b9392505050565b6000808284811515611e5f57fe5b04949350505050565b600082821115611e7457fe5b50900390565b5b60208110611e9a578151835260209283019290910190601f1901611e7b565b905182516020929092036101000a6000190180199091169116179052565b6080604051908101604052806004906020820280388339509192915050565b828054600181600116156101000203166002900490600052602060002090601f016020900481019282601f10611f185782800160ff19823516178555611f45565b82800160010185558215611f45579182015b82811115611f45578235825591602001919060010190611f2a565b50611f51929150611ff6565b5090565b608060405190810160405280606081526020016060815260200160608152602001600067ffffffffffffffff1681525090565b828054600181600116156101000203166002900490600052602060002090601f016020900481019282601f10611fc957805160ff1916838001178555611f45565b82800160010185558215611f45579182015b82811115611f45578251825591602001919060010190611fdb565b610f1191905b80821115611f515760008155600101611ffc56fea165627a7a7230582036577cdf9590d543288a31ae8fc8d4e76fee4b7ff5bdd7ba7874fbfa6969103f0029",
  "source": "pragma solidity >=0.4.22 <0.6.0;\r\n\r\nimport \"./CryptoConstellationBase.sol\";\r\nimport \"./ERC721.sol\";\r\nimport \"./ERC721Metadata.sol\";\r\n\r\n\r\n\r\ncontract CryptoConstellationOwnership is CryptoConstellationBase, ERC721 {\r\n    \r\n    string public constant name = \"CryptoConstellation\";\r\n    string public constant symbol = \"CCL\";\r\n\r\n    ERC721Metadata public erc721Metadata;\r\n\r\n    bytes4 constant InterfaceSignature_ERC165 =\r\n        bytes4(keccak256('supportsInterface(bytes4)'));\r\n\r\n    bytes4 constant InterfaceSignature_ERC721 =\r\n        bytes4(keccak256('name()')) ^\r\n        bytes4(keccak256('symbol()')) ^\r\n        bytes4(keccak256('totalSupply()')) ^\r\n        bytes4(keccak256('balanceOf(address)')) ^\r\n        bytes4(keccak256('ownerOf(uint256)')) ^\r\n        bytes4(keccak256('approve(address,uint256)')) ^\r\n        bytes4(keccak256('transfer(address,uint256)')) ^\r\n        bytes4(keccak256('transferFrom(address,address,uint256)')) ^\r\n        bytes4(keccak256('tokensOfOwner(address)')) ^\r\n        bytes4(keccak256('tokenMetadata(uint256,string)'));\r\n\r\n\r\n    function supportsInterface(bytes4 _interfaceID) external view returns (bool)\r\n    {\r\n        \r\n        return ((_interfaceID == InterfaceSignature_ERC165) || (_interfaceID == InterfaceSignature_ERC721));\r\n    }\r\n\r\n    function setMetadataAddress(address _contractAddress) public onlyCEO {\r\n        erc721Metadata = ERC721Metadata(_contractAddress);\r\n    }\r\n\r\n\r\n    function _owns(address _claimant, uint256 _tokenId) internal view returns (bool) {\r\n        return constellationCurrentOwner[_tokenId] == _claimant;\r\n    }\r\n    \r\n    function _approvedFor(uint256 _tokenId) internal view returns (address) {\r\n        return approvedOfConstellation[_tokenId];\r\n    }\r\n\r\n    function _approve(uint256 _tokenId, address _to) internal {\r\n        require(msg.sender != _to);\r\n        require(tokenExists(_tokenId));\r\n        require(ownerOf(_tokenId) == msg.sender);\r\n\r\n        if (_to == address(0)) {\r\n            if (approvedOfConstellation[_tokenId] != address(0)) {\r\n                delete approvedOfConstellation[_tokenId];\r\n                emit Approval(msg.sender, address(0), _tokenId);\r\n            }\r\n        } else {\r\n            approvedOfConstellation[_tokenId] = _to;\r\n            emit Approval(msg.sender, _to, _tokenId);\r\n        }\r\n    }\r\n\r\n    function ownerOf (uint256 _itemId) public view returns (address _owner) {\r\n        return constellationCurrentOwner[_itemId];\r\n    }\r\n\r\n    function balanceOf(address _owner) public view returns (uint256 count) {\r\n        return ownershipTokenCount[_owner];\r\n    }\r\n\r\n    function buy(uint256 _tokenId) payable external whenNotPaused \r\n    {\r\n        require(priceOf(_tokenId) > 0);\r\n        require(ownerOf(_tokenId) != address(0));\r\n        require(msg.value >= priceOf(_tokenId));\r\n        require(ownerOf(_tokenId) != msg.sender);\r\n        require(msg.sender != address(0));\r\n\r\n        address payable oldOwner = address(uint160(ownerOf(_tokenId)));\r\n        address payable newOwner = msg.sender;\r\n        uint256 price = priceOf(_tokenId);\r\n        uint256 excess = msg.value.sub(price);\r\n\r\n        _transfer(oldOwner, newOwner, _tokenId);\r\n        priceOfConstellation[_tokenId] = nextPriceOf(_tokenId);\r\n\r\n        emit Bought(_tokenId, newOwner, price);\r\n        emit Sold(_tokenId, oldOwner, price);\r\n\r\n        // Devevloper's cut which is left in contract and accesed by\r\n        // `withdrawAll` and `withdrawAmountTo` methods.\r\n        uint256 devCut = calculateDevCut(price);\r\n\r\n        // Transfer payment to old owner minus the developer's cut.\r\n        oldOwner.transfer(price.sub(devCut));\r\n\r\n        if (excess > 0) {\r\n            newOwner.transfer(excess);\r\n        }\r\n    }\r\n\r\n\r\n    function approve(address _to, uint256 _tokenId) external whenNotPaused\r\n    {\r\n        require(_owns(msg.sender, _tokenId));\r\n        \r\n        _approve(_tokenId, _to);\r\n    }\r\n\r\n    function transfer(address _to, uint256 _itemId) external {\r\n        require(msg.sender == ownerOf(_itemId));\r\n        _transfer(msg.sender, _to, _itemId);\r\n    }\r\n\r\n    function transferFrom(address _from, address _to, uint256 _tokenId) external whenNotPaused\r\n    {\r\n        require(_to != address(0));\r\n        require(_to != address(this));\r\n        \r\n        require(_approvedFor(_tokenId) == msg.sender);\r\n        require(_owns(_from, _tokenId));\r\n\r\n\r\n        _transfer(_from, _to, _tokenId);\r\n    }\r\n    \r\n    \r\n\r\n    function totalSupply() public view returns (uint) {\r\n        return constellations.length - 1;\r\n    }\r\n\r\n    function tokenExists(uint256 _itemId) public view returns (bool _exists) {\r\n    return priceOf(_itemId) > 0;\r\n    }\r\n\r\n    function startingPriceOf(uint256 _itemId) public view returns (uint256 _startingPrice) {\r\n        return startingPriceOfConstellation[_itemId];\r\n    }\r\n\r\n    function priceOf(uint256 _itemId) public view returns (uint256 _price) {\r\n        return priceOfConstellation[_itemId];\r\n    }\r\n\r\n    function nextPriceOf(uint256 _itemId) public view returns (uint256 _nextPrice) {\r\n        return calculateNextPrice(priceOf(_itemId));\r\n    }\r\n\r\n\r\n    function tokensOfOwner(address _owner) external view returns(uint256[] memory ownerTokens) {\r\n        uint256 tokenCount = balanceOf(_owner);\r\n\r\n        if (tokenCount == 0) {\r\n            // Return an empty array\r\n            return new uint256[](0);\r\n        } else {\r\n            uint256[] memory result = new uint256[](tokenCount);\r\n            uint256 totalConstellation = totalSupply();\r\n            uint256 resultIndex = 0;\r\n\r\n            uint256 constellationId;\r\n\r\n            for (constellationId = 1; constellationId <= totalConstellation; constellationId++) {\r\n                if (constellationCurrentOwner[constellationId] == _owner) {\r\n                    result[resultIndex] = constellationId;\r\n                    resultIndex++;\r\n                }\r\n            }\r\n\r\n            return result;\r\n        }\r\n    }\r\n\r\n\r\n    function _memcpy(uint _dest, uint _src, uint _len) private pure {\r\n        // Copy word-length chunks while possible\r\n        for(; _len >= 32; _len -= 32) {\r\n            assembly {\r\n                mstore(_dest, mload(_src))\r\n            }\r\n            _dest += 32;\r\n            _src += 32;\r\n        }\r\n\r\n        // Copy remaining bytes\r\n        uint256 mask = 256 ** (32 - _len) - 1;\r\n        assembly {\r\n            let srcpart := and(mload(_src), not(mask))\r\n            let destpart := and(mload(_dest), mask)\r\n            mstore(_dest, or(destpart, srcpart))\r\n        }\r\n    }\r\n    \r\n    \r\n    function _toString(bytes32[4] memory _rawBytes, uint256 _stringLength) private pure returns (string memory) {\r\n        string memory outputString = new string(_stringLength);\r\n        uint256 outputPtr;\r\n        uint256 bytesPtr;\r\n\r\n        assembly {\r\n            outputPtr := add(outputString, 32)\r\n            bytesPtr := _rawBytes\r\n        }\r\n\r\n        _memcpy(outputPtr, bytesPtr, _stringLength);\r\n\r\n        return outputString;\r\n    }\r\n\r\n\r\n    function tokenMetadata(uint256 _tokenId, string calldata _preferredTransport) external view returns (string memory infoUrl) {\r\n        bytes32[4] memory buffer;\r\n        uint256 count;\r\n        (buffer, count) = erc721Metadata.getMetadata(_tokenId, _preferredTransport);\r\n\r\n        return _toString(buffer, count);\r\n    }\r\n\r\n    function withdrawAll () onlyCLevel external {\r\n        address payable companyAddress = address(uint160(ceoAddress));\r\n        companyAddress.transfer(address(this).balance);\r\n    }\r\n\r\n    function withdrawAmount (uint256 _amount) onlyCLevel external {\r\n        address payable companyAddress = address(uint160(ceoAddress));\r\n        companyAddress.transfer(_amount);\r\n    }\r\n}",
  "sourcePath": "E:\\Official_Work\\CryptoConstellation\\crypto-constellation-beta\\contracts\\CryptoConstellationOwnership.sol",
  "compiler": {
    "name": "solc",
    "version": "0.5.0+commit.1d4f565a.Emscripten.clang"
  },
  "schemaVersion": "3.0.5",
  "updatedAt": "2019-04-03T12:23:11.214Z",
  "devdoc": {
    "methods": {}
  },
  "userdoc": {
    "methods": {}
  }
}