{
  "contractName": "CryptoConstellationAccessControl",
  "abi": [
    {
      "constant": true,
      "inputs": [],
      "name": "cfoAddress",
      "outputs": [
        {
          "name": "",
          "type": "address"
        }
      ],
      "payable": false,
      "stateMutability": "view",
      "type": "function"
    },
    {
      "constant": true,
      "inputs": [],
      "name": "ceoAddress",
      "outputs": [
        {
          "name": "",
          "type": "address"
        }
      ],
      "payable": false,
      "stateMutability": "view",
      "type": "function"
    },
    {
      "constant": true,
      "inputs": [],
      "name": "ctoAddress",
      "outputs": [
        {
          "name": "",
          "type": "address"
        }
      ],
      "payable": false,
      "stateMutability": "view",
      "type": "function"
    },
    {
      "constant": true,
      "inputs": [],
      "name": "paused",
      "outputs": [
        {
          "name": "",
          "type": "bool"
        }
      ],
      "payable": false,
      "stateMutability": "view",
      "type": "function"
    },
    {
      "constant": true,
      "inputs": [
        {
          "name": "",
          "type": "address"
        }
      ],
      "name": "userNickName",
      "outputs": [
        {
          "name": "",
          "type": "string"
        }
      ],
      "payable": false,
      "stateMutability": "view",
      "type": "function"
    },
    {
      "constant": true,
      "inputs": [],
      "name": "cooAddress",
      "outputs": [
        {
          "name": "",
          "type": "address"
        }
      ],
      "payable": false,
      "stateMutability": "view",
      "type": "function"
    },
    {
      "constant": false,
      "inputs": [
        {
          "name": "_newCEO",
          "type": "address"
        }
      ],
      "name": "setCEO",
      "outputs": [],
      "payable": false,
      "stateMutability": "nonpayable",
      "type": "function"
    },
    {
      "constant": false,
      "inputs": [
        {
          "name": "_newCTO",
          "type": "address"
        }
      ],
      "name": "setCTO",
      "outputs": [],
      "payable": false,
      "stateMutability": "nonpayable",
      "type": "function"
    },
    {
      "constant": false,
      "inputs": [
        {
          "name": "_newCFO",
          "type": "address"
        }
      ],
      "name": "setCFO",
      "outputs": [],
      "payable": false,
      "stateMutability": "nonpayable",
      "type": "function"
    },
    {
      "constant": false,
      "inputs": [
        {
          "name": "_newCOO",
          "type": "address"
        }
      ],
      "name": "setCOO",
      "outputs": [],
      "payable": false,
      "stateMutability": "nonpayable",
      "type": "function"
    },
    {
      "constant": false,
      "inputs": [
        {
          "name": "_user",
          "type": "address"
        },
        {
          "name": "_nickName",
          "type": "string"
        }
      ],
      "name": "setNickName",
      "outputs": [
        {
          "name": "",
          "type": "bool"
        }
      ],
      "payable": false,
      "stateMutability": "nonpayable",
      "type": "function"
    },
    {
      "constant": false,
      "inputs": [],
      "name": "pause",
      "outputs": [],
      "payable": false,
      "stateMutability": "nonpayable",
      "type": "function"
    },
    {
      "constant": false,
      "inputs": [],
      "name": "unpause",
      "outputs": [],
      "payable": false,
      "stateMutability": "nonpayable",
      "type": "function"
    }
  ],
  "bytecode": "0x60806040526003805460a060020a60ff021916905534801561002057600080fd5b50610813806100306000396000f3fe6080604052600436106100c45763ffffffff7c01000000000000000000000000000000000000000000000000000000006000350416630519ce7981146100c95780630a0f8168146100fa5780631f5136601461010f57806327d7874c146101245780632ba73c15146101595780633f4ba83a1461018c5780634e0a3379146101a15780635c975abb146101d457806371496ea3146101fd5780638456cb59146102a5578063b047fb50146102ba578063ebd4aab2146102cf578063fe1439b41461035c575b600080fd5b3480156100d557600080fd5b506100de61038f565b60408051600160a060020a039092168252519081900360200190f35b34801561010657600080fd5b506100de61039e565b34801561011b57600080fd5b506100de6103ad565b34801561013057600080fd5b506101576004803603602081101561014757600080fd5b5035600160a060020a03166103bc565b005b34801561016557600080fd5b506101576004803603602081101561017c57600080fd5b5035600160a060020a0316610417565b34801561019857600080fd5b50610157610472565b3480156101ad57600080fd5b50610157600480360360208110156101c457600080fd5b5035600160a060020a03166104d2565b3480156101e057600080fd5b506101e961052d565b604080519115158252519081900360200190f35b34801561020957600080fd5b506102306004803603602081101561022057600080fd5b5035600160a060020a031661054e565b6040805160208082528351818301528351919283929083019185019080838360005b8381101561026a578181015183820152602001610252565b50505050905090810190601f1680156102975780820380516001836020036101000a031916815260200191505b509250505060405180910390f35b3480156102b157600080fd5b506101576105e9565b3480156102c657600080fd5b506100de6106a0565b3480156102db57600080fd5b506101e9600480360360408110156102f257600080fd5b600160a060020a03823516919081019060408101602082013564010000000081111561031d57600080fd5b82018360208201111561032f57600080fd5b8035906020019184600183028401116401000000008311171561035157600080fd5b5090925090506106af565b34801561036857600080fd5b506101576004803603602081101561037f57600080fd5b5035600160a060020a03166106f1565b600254600160a060020a031681565b600054600160a060020a031681565b600154600160a060020a031681565b600054600160a060020a031633146103d357600080fd5b600160a060020a03811615156103e857600080fd5b6000805473ffffffffffffffffffffffffffffffffffffffff1916600160a060020a0392909216919091179055565b600054600160a060020a0316331461042e57600080fd5b600160a060020a038116151561044357600080fd5b6003805473ffffffffffffffffffffffffffffffffffffffff1916600160a060020a0392909216919091179055565b600054600160a060020a0316331461048957600080fd5b60035474010000000000000000000000000000000000000000900460ff1615156104b257600080fd5b6003805474ff000000000000000000000000000000000000000019169055565b600054600160a060020a031633146104e957600080fd5b600160a060020a03811615156104fe57600080fd5b6002805473ffffffffffffffffffffffffffffffffffffffff1916600160a060020a0392909216919091179055565b60035474010000000000000000000000000000000000000000900460ff1681565b60046020908152600091825260409182902080548351601f6002600019610100600186161502019093169290920491820184900484028101840190945280845290918301828280156105e15780601f106105b6576101008083540402835291602001916105e1565b820191906000526020600020905b8154815290600101906020018083116105c457829003601f168201915b505050505081565b600354600160a060020a031633148061060c5750600054600160a060020a031633145b806106215750600254600160a060020a031633145b806106365750600154600160a060020a031633145b151561064157600080fd5b60035474010000000000000000000000000000000000000000900460ff161561066957600080fd5b6003805474ff0000000000000000000000000000000000000000191674010000000000000000000000000000000000000000179055565b600354600160a060020a031681565b6000600160a060020a03841615156106c657600080fd5b600160a060020a03841660009081526004602052604090206106e990848461074c565b509392505050565b600054600160a060020a0316331461070857600080fd5b600160a060020a038116151561071d57600080fd5b6001805473ffffffffffffffffffffffffffffffffffffffff1916600160a060020a0392909216919091179055565b828054600181600116156101000203166002900490600052602060002090601f016020900481019282601f1061078d5782800160ff198235161785556107ba565b828001600101855582156107ba579182015b828111156107ba57823582559160200191906001019061079f565b506107c69291506107ca565b5090565b6107e491905b808211156107c657600081556001016107d0565b9056fea165627a7a7230582011f56cb9f4f3fd9af64d205f48994e6337cd923007a6c4b12715a15739256a030029",
  "source": "pragma solidity >=0.4.22 <0.6.0;\r\n\r\n\r\ncontract CryptoConstellationAccessControl  {\r\n    \r\n    address public ceoAddress;\r\n    address public ctoAddress;\r\n    address public cfoAddress;\r\n    address public cooAddress;\r\n\r\n    bool public paused = false;\r\n    \r\n    mapping (address => string) public userNickName;\r\n\r\n    modifier onlyCEO() {\r\n        require(msg.sender == ceoAddress);\r\n        _;\r\n    }\r\n    \r\n    modifier onlyCTO() {\r\n        require(msg.sender == ctoAddress);\r\n        _;\r\n    }\r\n\r\n    modifier onlyCFO() {\r\n        require(msg.sender == cfoAddress);\r\n        _;\r\n    }\r\n\r\n    modifier onlyCOO() {\r\n        require(msg.sender == cooAddress);\r\n        _;\r\n    }\r\n\r\n    modifier onlyCLevel() {\r\n        require(\r\n            msg.sender == cooAddress ||\r\n            msg.sender == ceoAddress ||\r\n            msg.sender == cfoAddress ||\r\n            msg.sender == ctoAddress\r\n        );\r\n        _;\r\n    }\r\n    \r\n\r\n\r\n\r\n    function setCEO(address _newCEO) external onlyCEO {\r\n        require(_newCEO != address(0));\r\n\r\n        ceoAddress = _newCEO;\r\n    }\r\n    \r\n    function setCTO(address _newCTO) external onlyCEO {\r\n        require(_newCTO != address(0));\r\n\r\n        ctoAddress = _newCTO;\r\n    }\r\n\r\n    function setCFO(address _newCFO) external onlyCEO {\r\n        require(_newCFO != address(0));\r\n        \r\n        cfoAddress = _newCFO;\r\n    }\r\n\r\n    function setCOO(address _newCOO) external onlyCEO {\r\n        require(_newCOO != address(0));\r\n\r\n        cooAddress = _newCOO;\r\n    }\r\n\r\n    function setNickName(address _user, string calldata _nickName) external returns (bool) {\r\n        require(_user != address(0));\r\n\r\n        userNickName[_user] = _nickName;\r\n    }\r\n\r\n    modifier whenNotPaused() {\r\n        require(!paused);\r\n        _;\r\n    }\r\n\r\n    modifier whenPaused {\r\n        require(paused);\r\n        _;\r\n    }\r\n\r\n\r\n    function pause() external onlyCLevel whenNotPaused {\r\n        paused = true;\r\n    }\r\n    \r\n    function unpause() external onlyCEO whenPaused {\r\n        // can't unpause if contract was upgraded\r\n        paused = false;\r\n    }\r\n\r\n    \r\n    \r\n    \r\n}",
  "sourcePath": "E:\\Official_Work\\CryptoConstellation\\crypto-constellation-beta\\contracts\\CryptoConstellationAccessControl.sol",
  "compiler": {
    "name": "solc",
    "version": "0.5.0+commit.1d4f565a.Emscripten.clang"
  },
  "schemaVersion": "3.0.5",
  "updatedAt": "2019-04-03T12:23:11.118Z",
  "devdoc": {
    "methods": {}
  },
  "userdoc": {
    "methods": {}
  }
}