{
  "contractName": "CryptoConstellationBase",
  "abi": [
    {
      "constant": true,
      "inputs": [],
      "name": "cfoAddress",
      "outputs": [
        {
          "name": "",
          "type": "address"
        }
      ],
      "payable": false,
      "stateMutability": "view",
      "type": "function"
    },
    {
      "constant": true,
      "inputs": [],
      "name": "ceoAddress",
      "outputs": [
        {
          "name": "",
          "type": "address"
        }
      ],
      "payable": false,
      "stateMutability": "view",
      "type": "function"
    },
    {
      "constant": true,
      "inputs": [],
      "name": "ctoAddress",
      "outputs": [
        {
          "name": "",
          "type": "address"
        }
      ],
      "payable": false,
      "stateMutability": "view",
      "type": "function"
    },
    {
      "constant": false,
      "inputs": [
        {
          "name": "_newCEO",
          "type": "address"
        }
      ],
      "name": "setCEO",
      "outputs": [],
      "payable": false,
      "stateMutability": "nonpayable",
      "type": "function"
    },
    {
      "constant": false,
      "inputs": [
        {
          "name": "_newCOO",
          "type": "address"
        }
      ],
      "name": "setCOO",
      "outputs": [],
      "payable": false,
      "stateMutability": "nonpayable",
      "type": "function"
    },
    {
      "constant": false,
      "inputs": [],
      "name": "unpause",
      "outputs": [],
      "payable": false,
      "stateMutability": "nonpayable",
      "type": "function"
    },
    {
      "constant": false,
      "inputs": [
        {
          "name": "_newCFO",
          "type": "address"
        }
      ],
      "name": "setCFO",
      "outputs": [],
      "payable": false,
      "stateMutability": "nonpayable",
      "type": "function"
    },
    {
      "constant": true,
      "inputs": [],
      "name": "paused",
      "outputs": [
        {
          "name": "",
          "type": "bool"
        }
      ],
      "payable": false,
      "stateMutability": "view",
      "type": "function"
    },
    {
      "constant": true,
      "inputs": [
        {
          "name": "",
          "type": "address"
        }
      ],
      "name": "userNickName",
      "outputs": [
        {
          "name": "",
          "type": "string"
        }
      ],
      "payable": false,
      "stateMutability": "view",
      "type": "function"
    },
    {
      "constant": false,
      "inputs": [],
      "name": "pause",
      "outputs": [],
      "payable": false,
      "stateMutability": "nonpayable",
      "type": "function"
    },
    {
      "constant": true,
      "inputs": [],
      "name": "cooAddress",
      "outputs": [
        {
          "name": "",
          "type": "address"
        }
      ],
      "payable": false,
      "stateMutability": "view",
      "type": "function"
    },
    {
      "constant": true,
      "inputs": [
        {
          "name": "",
          "type": "uint256"
        }
      ],
      "name": "constellationCurrentOwner",
      "outputs": [
        {
          "name": "",
          "type": "address"
        }
      ],
      "payable": false,
      "stateMutability": "view",
      "type": "function"
    },
    {
      "constant": false,
      "inputs": [
        {
          "name": "_user",
          "type": "address"
        },
        {
          "name": "_nickName",
          "type": "string"
        }
      ],
      "name": "setNickName",
      "outputs": [
        {
          "name": "",
          "type": "bool"
        }
      ],
      "payable": false,
      "stateMutability": "nonpayable",
      "type": "function"
    },
    {
      "constant": false,
      "inputs": [
        {
          "name": "_newCTO",
          "type": "address"
        }
      ],
      "name": "setCTO",
      "outputs": [],
      "payable": false,
      "stateMutability": "nonpayable",
      "type": "function"
    },
    {
      "anonymous": false,
      "inputs": [
        {
          "indexed": true,
          "name": "_owner",
          "type": "address"
        },
        {
          "indexed": true,
          "name": "_tokenId",
          "type": "uint256"
        }
      ],
      "name": "ConstellationCreation",
      "type": "event"
    },
    {
      "anonymous": false,
      "inputs": [
        {
          "indexed": true,
          "name": "_from",
          "type": "address"
        },
        {
          "indexed": true,
          "name": "_to",
          "type": "address"
        },
        {
          "indexed": false,
          "name": "_tokenId",
          "type": "uint256"
        }
      ],
      "name": "Transfer",
      "type": "event"
    },
    {
      "anonymous": false,
      "inputs": [
        {
          "indexed": true,
          "name": "_tokenId",
          "type": "uint256"
        },
        {
          "indexed": true,
          "name": "_owner",
          "type": "address"
        },
        {
          "indexed": false,
          "name": "_price",
          "type": "uint256"
        }
      ],
      "name": "Bought",
      "type": "event"
    },
    {
      "anonymous": false,
      "inputs": [
        {
          "indexed": true,
          "name": "_tokenId",
          "type": "uint256"
        },
        {
          "indexed": true,
          "name": "_owner",
          "type": "address"
        },
        {
          "indexed": false,
          "name": "_price",
          "type": "uint256"
        }
      ],
      "name": "Sold",
      "type": "event"
    },
    {
      "constant": true,
      "inputs": [
        {
          "name": "_price",
          "type": "uint256"
        }
      ],
      "name": "calculateNextPrice",
      "outputs": [
        {
          "name": "_nextPrice",
          "type": "uint256"
        }
      ],
      "payable": false,
      "stateMutability": "view",
      "type": "function"
    },
    {
      "constant": true,
      "inputs": [
        {
          "name": "_price",
          "type": "uint256"
        }
      ],
      "name": "calculateDevCut",
      "outputs": [
        {
          "name": "_devCut",
          "type": "uint256"
        }
      ],
      "payable": false,
      "stateMutability": "view",
      "type": "function"
    },
    {
      "constant": false,
      "inputs": [
        {
          "name": "_name",
          "type": "string"
        },
        {
          "name": "_description",
          "type": "string"
        },
        {
          "name": "_ipfsHash",
          "type": "string"
        },
        {
          "name": "_price",
          "type": "uint256"
        },
        {
          "name": "_owner",
          "type": "address"
        }
      ],
      "name": "createConstellation",
      "outputs": [
        {
          "name": "",
          "type": "uint256"
        }
      ],
      "payable": false,
      "stateMutability": "nonpayable",
      "type": "function"
    }
  ],
  "bytecode": "0x60806040526003805460a060020a60ff021916905566470de4df8200006005556706f05b59d3b20000600655671bc16d674ec80000600755674563918244f4000060085534801561004f57600080fd5b50610fdd8061005f6000396000f3fe6080604052600436106100f05763ffffffff7c01000000000000000000000000000000000000000000000000000000006000350416630519ce7981146100f55780630a0f8168146101265780631f5136601461013b578063226386591461015057806327d7874c146102925780632ba73c15146102c75780633f4ba83a146102fa5780634e0a33791461030f5780635c975abb14610342578063651212051461036b57806371496ea3146103955780638456cb591461043d578063b047fb5014610452578063e08503ec14610467578063e464bec514610491578063ebd4aab2146104bb578063fe1439b414610548575b600080fd5b34801561010157600080fd5b5061010a61057b565b60408051600160a060020a039092168252519081900360200190f35b34801561013257600080fd5b5061010a61058a565b34801561014757600080fd5b5061010a610599565b34801561015c57600080fd5b50610280600480360360a081101561017357600080fd5b81019060208101813564010000000081111561018e57600080fd5b8201836020820111156101a057600080fd5b803590602001918460018302840111640100000000831117156101c257600080fd5b9193909290916020810190356401000000008111156101e057600080fd5b8201836020820111156101f257600080fd5b8035906020019184600183028401116401000000008311171561021457600080fd5b91939092909160208101903564010000000081111561023257600080fd5b82018360208201111561024457600080fd5b8035906020019184600183028401116401000000008311171561026657600080fd5b919350915080359060200135600160a060020a03166105a8565b60408051918252519081900360200190f35b34801561029e57600080fd5b506102c5600480360360208110156102b557600080fd5b5035600160a060020a03166106d2565b005b3480156102d357600080fd5b506102c5600480360360208110156102ea57600080fd5b5035600160a060020a031661072d565b34801561030657600080fd5b506102c5610788565b34801561031b57600080fd5b506102c56004803603602081101561033257600080fd5b5035600160a060020a03166107d7565b34801561034e57600080fd5b50610357610832565b604080519115158252519081900360200190f35b34801561037757600080fd5b506102806004803603602081101561038e57600080fd5b5035610842565b3480156103a157600080fd5b506103c8600480360360208110156103b857600080fd5b5035600160a060020a03166108f2565b6040805160208082528351818301528351919283929083019185019080838360005b838110156104025781810151838201526020016103ea565b50505050905090810190601f16801561042f5780820380516001836020036101000a031916815260200191505b509250505060405180910390f35b34801561044957600080fd5b506102c561098d565b34801561045e57600080fd5b5061010a610a22565b34801561047357600080fd5b506102806004803603602081101561048a57600080fd5b5035610a31565b34801561049d57600080fd5b5061010a600480360360208110156104b457600080fd5b5035610ac9565b3480156104c757600080fd5b50610357600480360360408110156104de57600080fd5b600160a060020a03823516919081019060408101602082013564010000000081111561050957600080fd5b82018360208201111561051b57600080fd5b8035906020019184600183028401116401000000008311171561053d57600080fd5b509092509050610ae4565b34801561055457600080fd5b506102c56004803603602081101561056b57600080fd5b5035600160a060020a0316610b26565b600254600160a060020a031681565b600054600160a060020a031681565b600154600160a060020a031681565b60035460009060a060020a900460ff16156105c257600080fd5b600354600160a060020a03163314806105e55750600054600160a060020a031633145b806105fa5750600254600160a060020a031633145b8061060f5750600154600160a060020a031633145b151561061a57600080fd5b6106c589898080601f01602080910402602001604051908101604052809392919081815260200183838082843760009201919091525050604080516020601f8d018190048102820181019092528b815292508b91508a908190840183828082843760009201919091525050604080516020601f8c018190048102820181019092528a815292508a9150899081908401838280828437600092019190915250899250889150610b819050565b9998505050505050505050565b600054600160a060020a031633146106e957600080fd5b600160a060020a03811615156106fe57600080fd5b6000805473ffffffffffffffffffffffffffffffffffffffff1916600160a060020a0392909216919091179055565b600054600160a060020a0316331461074457600080fd5b600160a060020a038116151561075957600080fd5b6003805473ffffffffffffffffffffffffffffffffffffffff1916600160a060020a0392909216919091179055565b600054600160a060020a0316331461079f57600080fd5b60035460a060020a900460ff1615156107b757600080fd5b6003805474ff000000000000000000000000000000000000000019169055565b600054600160a060020a031633146107ee57600080fd5b600160a060020a038116151561080357600080fd5b6002805473ffffffffffffffffffffffffffffffffffffffff1916600160a060020a0392909216919091179055565b60035460a060020a900460ff1681565b600060055482101561087757610870606461086484600a63ffffffff610d5a16565b9063ffffffff610d8b16565b90506108ed565b60065482101561089757610870606461086484600963ffffffff610d5a16565b6007548210156108b757610870606461086484600863ffffffff610d5a16565b6008548210156108d757610870606461086484600763ffffffff610d5a16565b610870606461086484600663ffffffff610d5a16565b919050565b60046020908152600091825260409182902080548351601f6002600019610100600186161502019093169290920491820184900484028101840190945280845290918301828280156109855780601f1061095a57610100808354040283529160200191610985565b820191906000526020600020905b81548152906001019060200180831161096857829003601f168201915b505050505081565b600354600160a060020a03163314806109b05750600054600160a060020a031633145b806109c55750600254600160a060020a031633145b806109da5750600154600160a060020a031633145b15156109e557600080fd5b60035460a060020a900460ff16156109fc57600080fd5b6003805474ff0000000000000000000000000000000000000000191660a060020a179055565b600354600160a060020a031681565b6000600554821015610a5357610870605f6108648460c863ffffffff610d5a16565b600654821015610a7357610870606061086484608763ffffffff610d5a16565b600754821015610a9357610870606161086484607d63ffffffff610d5a16565b600854821015610ab357610870606161086484607563ffffffff610d5a16565b610870606261086484607363ffffffff610d5a16565b600a60205260009081526040902054600160a060020a031681565b6000600160a060020a0384161515610afb57600080fd5b600160a060020a0384166000908152600460205260409020610b1e908484610e75565b509392505050565b600054600160a060020a03163314610b3d57600080fd5b600160a060020a0381161515610b5257600080fd5b6001805473ffffffffffffffffffffffffffffffffffffffff1916600160a060020a0392909216919091179055565b60035460009060a060020a900460ff1615610b9b57600080fd5b600354600160a060020a0316331480610bbe5750600054600160a060020a031633145b80610bd35750600254600160a060020a031633145b80610be85750600154600160a060020a031633145b1515610bf357600080fd5b610bfb610ef3565b5060408051608081018252878152602080820188905291810186905267ffffffffffffffff421660608201526009805460018181018084556000938452845180519596949592949193879360049091027f6e1540171b6c0c960b71a7020d9f60077f6af931a8bbf590da0223dacf75c7af0192610c7c928492910190610f26565b506020828101518051610c959260018501920190610f26565b5060408201518051610cb1916002840191602090910190610f26565b50606091909101516003909101805467ffffffffffffffff191667ffffffffffffffff90921691909117905503905063ffffffff81168114610cf257600080fd5b6000818152600c60209081526040808320889055600d909152808220879055518291600160a060020a038716917fe331ff99631abd6a038660b66ed834044ccdb1443989a2e28b321498e71caa599190a3610d4f60008583610da2565b979650505050505050565b6000821515610d6b57506000610d85565b828202828482811515610d7a57fe5b0414610d8257fe5b90505b92915050565b6000808284811515610d9957fe5b04949350505050565b600160a060020a038083166000818152600b6020908152604080832080546001019055858352600a8252808320805473ffffffffffffffffffffffffffffffffffffffff199081169095179055600e909152902080549091169055831615610e2557600160a060020a0383166000908152600b6020526040902080546000190190555b81600160a060020a031683600160a060020a03167fddf252ad1be2c89b69c2b068fc378daa952ba7f163c4a11628f55a4df523b3ef836040518082815260200191505060405180910390a3505050565b828054600181600116156101000203166002900490600052602060002090601f016020900481019282601f10610eb65782800160ff19823516178555610ee3565b82800160010185558215610ee3579182015b82811115610ee3578235825591602001919060010190610ec8565b50610eef929150610f94565b5090565b608060405190810160405280606081526020016060815260200160608152602001600067ffffffffffffffff1681525090565b828054600181600116156101000203166002900490600052602060002090601f016020900481019282601f10610f6757805160ff1916838001178555610ee3565b82800160010185558215610ee3579182015b82811115610ee3578251825591602001919060010190610f79565b610fae91905b80821115610eef5760008155600101610f9a565b9056fea165627a7a723058201d75d731b69a821e24ee913d4350ca2096bcb6f5a2df77b381d20b26c85d69590029",
  "source": "pragma solidity >=0.4.22 <0.6.0;\r\n\r\nimport \"./CryptoConstellationAccessControl.sol\";\r\nimport \"./SafeMath.sol\";\r\n\r\ncontract CryptoConstellationBase is CryptoConstellationAccessControl {\r\n\r\n    using SafeMath for uint256;\r\n    \r\n    event ConstellationCreation(address indexed _owner, uint256 indexed _tokenId);\r\n    \r\n    event Transfer(address indexed _from, address indexed _to, uint256 _tokenId);\r\n\r\n    event Bought (uint256 indexed _tokenId, address indexed _owner, uint256 _price);\r\n\r\n    event Sold (uint256 indexed _tokenId, address indexed _owner, uint256 _price);\r\n    \r\n    \r\n    struct Constellation {\r\n        string name;\r\n        string description;\r\n        string ipfsHash;\r\n        uint64 creationTimestamp;\r\n    }\r\n\r\n    \r\n    uint256 internal increaseLimit1 = 0.02 ether;\r\n    uint256 internal increaseLimit2 = 0.5 ether;\r\n    uint256 internal increaseLimit3 = 2.0 ether;\r\n    uint256 internal increaseLimit4 = 5.0 ether;\r\n    \r\n    Constellation[] constellations;\r\n    \r\n    mapping (uint256 => address) public constellationCurrentOwner;\r\n    \r\n    mapping (address => uint256) internal ownershipTokenCount;\r\n\r\n    mapping (uint256 => uint256) internal startingPriceOfConstellation;\r\n\r\n    mapping (uint256 => uint256) internal priceOfConstellation;\r\n\r\n    mapping (uint256 => address) internal approvedOfConstellation;\r\n    \r\n    \r\n    modifier onlyOwner(uint _propId) {\r\n\t\trequire(constellationCurrentOwner[_propId] == msg.sender);\r\n\t\t_;\r\n\t}\r\n\r\n\t\r\n    \r\n    function _transfer(address _from, address _to, uint256 _tokenId) internal {\r\n        \r\n        // Since the number of assets is capped to 2^32 we can't overflow this\r\n        ownershipTokenCount[_to]++;\r\n        // transfer ownership\r\n        constellationCurrentOwner[_tokenId] = _to;\r\n\r\n        approvedOfConstellation[_tokenId] = address(0);\r\n        // When creating new kittens _from is 0x0, but we can't account that address.\r\n        if (_from != address(0)) {\r\n            ownershipTokenCount[_from]--;\r\n        }\r\n        // Emit the transfer event.\r\n        emit Transfer(_from, _to, _tokenId);\r\n    }\r\n    \r\n    \r\n    function calculateNextPrice (uint256 _price) public view returns (uint256 _nextPrice) {\r\n        if (_price < increaseLimit1) {\r\n            return _price.mul(200).div(95);\r\n        } else if (_price < increaseLimit2) {\r\n            return _price.mul(135).div(96);\r\n        } else if (_price < increaseLimit3) {\r\n            return _price.mul(125).div(97);\r\n        } else if (_price < increaseLimit4) {\r\n            return _price.mul(117).div(97);\r\n        } else {\r\n            return _price.mul(115).div(98);\r\n        }\r\n    }\r\n\r\n    function calculateDevCut (uint256 _price) public view returns (uint256 _devCut) {\r\n        if (_price < increaseLimit1) {\r\n            return _price.mul(10).div(100); // 10%\r\n        } else if (_price < increaseLimit2) {\r\n            return _price.mul(9).div(100); // 9%\r\n        } else if (_price < increaseLimit3) {\r\n            return _price.mul(8).div(100); // 8%\r\n        } else if (_price < increaseLimit4) {\r\n            return _price.mul(7).div(100); // 7%\r\n        } else {\r\n            return _price.mul(6).div(100); // 6%\r\n        }\r\n    }\r\n\r\n    \r\n    function createConstellation(\r\n        string calldata _name,\r\n        string calldata _description,\r\n        string calldata _ipfsHash,\r\n        uint256 _price,\r\n        address _owner\r\n    )\r\n        external\r\n        whenNotPaused\r\n        onlyCLevel\r\n        returns (uint)\r\n    {\r\n        return _createConstellation(_name, _description, _ipfsHash, _price, _owner);\r\n    }\r\n    \r\n    function _createConstellation(\r\n        string memory _name,\r\n        string memory _description,\r\n        string memory _ipfsHash,\r\n        uint256 _price,\r\n        address _owner\r\n    )\r\n        internal\r\n        whenNotPaused\r\n        onlyCLevel\r\n        returns (uint)\r\n    {\r\n        \r\n        Constellation memory _constellation = Constellation({\r\n            name: _name,\r\n            description: _description,\r\n            ipfsHash: _ipfsHash,\r\n            creationTimestamp: uint64(block.timestamp)\r\n        });\r\n        uint256 newConstellationId = constellations.push(_constellation) - 1;\r\n\r\n        require(newConstellationId == uint256(uint32(newConstellationId)));\r\n\r\n        startingPriceOfConstellation[newConstellationId] = _price;\r\n        priceOfConstellation[newConstellationId] = _price;\r\n\r\n\r\n        // emit the birth event\r\n        emit ConstellationCreation(_owner, newConstellationId);\r\n\r\n        _transfer(address(0), _owner, newConstellationId);\r\n\r\n        return newConstellationId;\r\n    }\r\n    \r\n    \r\n    \r\n    \r\n}",
  "sourcePath": "E:\\Official_Work\\CryptoConstellation\\crypto-constellation-beta\\contracts\\CryptoConstellationBase.sol",
  "compiler": {
    "name": "solc",
    "version": "0.5.0+commit.1d4f565a.Emscripten.clang"
  },
  "schemaVersion": "3.0.5",
  "updatedAt": "2019-04-03T12:23:11.159Z",
  "devdoc": {
    "methods": {}
  },
  "userdoc": {
    "methods": {}
  }
}