{
  "contractName": "ERC721Metadata",
  "abi": [
    {
      "constant": true,
      "inputs": [
        {
          "name": "_tokenId",
          "type": "uint256"
        },
        {
          "name": "",
          "type": "string"
        }
      ],
      "name": "getMetadata",
      "outputs": [
        {
          "name": "buffer",
          "type": "bytes32[4]"
        },
        {
          "name": "count",
          "type": "uint256"
        }
      ],
      "payable": false,
      "stateMutability": "pure",
      "type": "function"
    }
  ],
  "bytecode": "0x608060405234801561001057600080fd5b506102ca806100206000396000f3fe6080604052600436106100405763ffffffff7c0100000000000000000000000000000000000000000000000000000000600035041663cb4799f28114610045575b600080fd5b34801561005157600080fd5b506100ff6004803603604081101561006857600080fd5b8135919081019060408101602082013564010000000081111561008a57600080fd5b82018360208201111561009c57600080fd5b803590602001918460018302840111640100000000831117156100be57600080fd5b91908080601f01602080910402602001604051908101604052809392919081815260200183838082843760009201919091525092955061013e945050505050565b6040518083608080838360005b8381101561012457818101518382015260200161010c565b505050509050018281526020019250505060405180910390f35b61014661027f565b6000836001141561017c57507f48656c6c6f20576f726c6421203a4400000000000000000000000000000000008152600f610278565b83600214156101d657507f4920776f756c6420646566696e6974656c792063686f6f73652061206d65646981527f756d206c656e67746820737472696e672e00000000000000000000000000000060208201526031610278565b836003141561027857507f4c6f72656d20697073756d20646f6c6f722073697420616d65742c206d69206581527f737420616363756d73616e2064617069627573206175677565206c6f72656d2c60208201527f2074726973746971756520766573746962756c756d2069642c206c696265726f60408201527f207375736369706974207661726975732073617069656e20616c697175616d2e606082015260805b9250929050565b608060405190810160405280600490602082028038833950919291505056fea165627a7a7230582002bb1c2675ab98f56a7841b9d4ac834836992999fcdd8307a11cc28a2dd996b60029",
  "source": "pragma solidity >=0.4.22 <0.6.0;\r\n\r\n\r\ncontract ERC721Metadata {\r\n    /// @dev Given a token Id, returns a byte array that is supposed to be converted into string.\r\n    function getMetadata(uint256 _tokenId, string memory) public pure returns (bytes32[4] memory buffer, uint256 count) {\r\n        if (_tokenId == 1) {\r\n            buffer[0] = \"Hello World! :D\";\r\n            count = 15;\r\n        } else if (_tokenId == 2) {\r\n            buffer[0] = \"I would definitely choose a medi\";\r\n            buffer[1] = \"um length string.\";\r\n            count = 49;\r\n        } else if (_tokenId == 3) {\r\n            buffer[0] = \"Lorem ipsum dolor sit amet, mi e\";\r\n            buffer[1] = \"st accumsan dapibus augue lorem,\";\r\n            buffer[2] = \" tristique vestibulum id, libero\";\r\n            buffer[3] = \" suscipit varius sapien aliquam.\";\r\n            count = 128;\r\n        }\r\n    }\r\n}",
  "sourcePath": "E:\\Official_Work\\CryptoConstellation\\crypto-constellation-beta\\contracts\\ERC721Metadata.sol",
  "compiler": {
    "name": "solc",
    "version": "0.5.0+commit.1d4f565a.Emscripten.clang"
  },
  "schemaVersion": "3.0.5",
  "updatedAt": "2019-04-03T12:23:11.093Z",
  "devdoc": {
    "methods": {
      "getMetadata(uint256,string)": {
        "details": "Given a token Id, returns a byte array that is supposed to be converted into string."
      }
    }
  },
  "userdoc": {
    "methods": {}
  }
}